:100000000C9442000C9457000C9457000C94570029
:100010000C9457000C9457000C9457000C94570004
:100020000C9457000C9457000C9457000C945700F4
:100030000C9457000C9457000C9457000C945700E4
:100040000C9457000C9457000C9457000C945700D4
:100050000C9457000C9457000C9457000C945700C4
:100060000C9457000C94570068006A006C006E00F6
:100070007000720074008500870089008B008D007D
:100080008F00910011241FBECFEFD8E0DEBFCDBF9F
:1000900011E0A0E0B1E0ECEBF2E002C005900D92BF
:1000A000A430B107D9F70E94A1000C945C010C9414
:1000B00000008FE78BB915B8E0910001F0910101C4
:1000C0003197E730F10590F4EC5CFF4F0C9456014A
:1000D00058980FC059980DC05A980BC05B9809C02A
:1000E0005C9807C05D9805C05E9803C08BB18F67B0
:1000F0008BB9E0910201F09103013197E730F105EE
:1001000090F4E55CFF4F0C9456015F9A10C0289A5A
:100110000EC0299A0CC02A9A0AC02B9A08C02C9AA1
:1001200006C02D9A04C05F9885B1807C85B92FEFF9
:1001300087E893E1215080409040E1F700C0000043
:1001400008958FEF8AB984B917B880E29EE475E606
:1001500064E05BE746E03FE52EE07BB965B9EFE997
:10016000FFE03197F1F700C000005BB945B9EFE956
:10017000FFE03197F1F700C000003BB925B9EFE986
:10018000FFE03197F1F700C00000019731F787E7F2
:100190008BB984E085B980917A00806880937A0079
:1001A00080917A00846080937A0080917C008066E0
:1001B00080937C0001E010E0C7E0D0E080917C00FB
:1001C000807F80937C0080917C0080937C00809174
:1001D0007A00806480937A0080917A0084FFFCCF5B
:1001E000809179008A3180F480910201909103011D
:1001F0008230910514F0019712C0D0930301C0938F
:1002000002010E94590015C0895C863390F48091E8
:100210000201909103018730910534F40196909387
:10022000030180930201EDCF1093030100930201BB
:10023000E8CF80917C00807F80937C0080917C005F
:10024000816080937C0080917A00806480937A0042
:1002500080917A0084FFFCCF809179008A3180F40C
:1002600080910001909101018730910514F401966D
:1002700013C010930101009300010E9459009ECF0A
:10028000895C863308F09ACF80910001909101013A
:100290008230910534F00197909301018093000121
:1002A000ECCFD0930101C0930001E7CFEE0FFF1F09
:0C02B0000590F491E02D0994F894FFCF24
:0402BC000400040036
:00000001FF
